{
  "_format": "hh-sol-artifact-1",
  "contractName": "Voting",
  "sourceName": "contracts/Voting.sol",
  "abi": [
    {
      "inputs": [],
      "stateMutability": "nonpayable",
      "type": "constructor"
    },
    {
      "anonymous": false,
      "inputs": [
        {
          "indexed": false,
          "internalType": "string",
          "name": "Candididate_Name",
          "type": "string"
        },
        {
          "indexed": false,
          "internalType": "uint256",
          "name": "Candidate_Age",
          "type": "uint256"
        },
        {
          "indexed": false,
          "internalType": "string",
          "name": "Candidate_Gender",
          "type": "string"
        },
        {
          "indexed": false,
          "internalType": "string",
          "name": "Candidate_Party_Name",
          "type": "string"
        },
        {
          "indexed": false,
          "internalType": "uint256",
          "name": "Candidate_Aadhar_No",
          "type": "uint256"
        }
      ],
      "name": "Create_Candidate",
      "type": "event"
    },
    {
      "anonymous": false,
      "inputs": [
        {
          "indexed": false,
          "internalType": "string",
          "name": "Voter_Name",
          "type": "string"
        },
        {
          "indexed": false,
          "internalType": "uint256",
          "name": "Voter_Age",
          "type": "uint256"
        },
        {
          "indexed": false,
          "internalType": "string",
          "name": "Voter_Gender",
          "type": "string"
        },
        {
          "indexed": false,
          "internalType": "uint256",
          "name": "Voter_Adhar_No",
          "type": "uint256"
        }
      ],
      "name": "Create_Voter",
      "type": "event"
    },
    {
      "anonymous": false,
      "inputs": [
        {
          "indexed": false,
          "internalType": "string",
          "name": "Candididate_Name",
          "type": "string"
        },
        {
          "indexed": false,
          "internalType": "uint256",
          "name": "Candidate_Age",
          "type": "uint256"
        },
        {
          "indexed": false,
          "internalType": "string",
          "name": "Candidate_Gender",
          "type": "string"
        },
        {
          "indexed": false,
          "internalType": "string",
          "name": "Candidate_Party_Name",
          "type": "string"
        },
        {
          "indexed": false,
          "internalType": "uint256",
          "name": "Candidate_Aadhar_No",
          "type": "uint256"
        },
        {
          "indexed": false,
          "internalType": "uint256",
          "name": "Candidate_Vote_Count",
          "type": "uint256"
        }
      ],
      "name": "Final_Winner",
      "type": "event"
    },
    {
      "inputs": [
        {
          "internalType": "string",
          "name": "_Name",
          "type": "string"
        },
        {
          "internalType": "uint256",
          "name": "_Gender",
          "type": "uint256"
        },
        {
          "internalType": "uint256",
          "name": "_Age",
          "type": "uint256"
        },
        {
          "internalType": "string",
          "name": "_Party_Name",
          "type": "string"
        },
        {
          "internalType": "uint256",
          "name": "_Adhar_No",
          "type": "uint256"
        }
      ],
      "name": "Add_Candidate",
      "outputs": [],
      "stateMutability": "nonpayable",
      "type": "function"
    },
    {
      "inputs": [
        {
          "internalType": "string",
          "name": "_Name",
          "type": "string"
        },
        {
          "internalType": "uint256",
          "name": "_Age",
          "type": "uint256"
        },
        {
          "internalType": "uint256",
          "name": "_Gender",
          "type": "uint256"
        },
        {
          "internalType": "uint256",
          "name": "_Adhar_No",
          "type": "uint256"
        },
        {
          "internalType": "string",
          "name": "_email",
          "type": "string"
        }
      ],
      "name": "Add_Voter",
      "outputs": [],
      "stateMutability": "nonpayable",
      "type": "function"
    },
    {
      "inputs": [
        {
          "internalType": "uint256",
          "name": "_Adhar_No",
          "type": "uint256"
        },
        {
          "internalType": "uint256",
          "name": "_Candidate_Id",
          "type": "uint256"
        }
      ],
      "name": "Cast_Vote",
      "outputs": [],
      "stateMutability": "nonpayable",
      "type": "function"
    },
    {
      "inputs": [],
      "name": "Election_Data_Stats",
      "outputs": [
        {
          "components": [
            {
              "internalType": "uint256",
              "name": "Total_Voters",
              "type": "uint256"
            },
            {
              "internalType": "uint256",
              "name": "Total_Male_Voters",
              "type": "uint256"
            },
            {
              "internalType": "uint256",
              "name": "Total_Female_Voters",
              "type": "uint256"
            },
            {
              "internalType": "uint256",
              "name": "Total_Vote_Voted",
              "type": "uint256"
            },
            {
              "internalType": "uint256",
              "name": "Total_Male_Voted",
              "type": "uint256"
            },
            {
              "internalType": "uint256",
              "name": "Total_Female_Voted",
              "type": "uint256"
            },
            {
              "internalType": "uint256",
              "name": "Total_Candidate",
              "type": "uint256"
            },
            {
              "internalType": "uint256",
              "name": "Total_Female_Candidate",
              "type": "uint256"
            },
            {
              "internalType": "uint256",
              "name": "Total_Male_Candidate",
              "type": "uint256"
            }
          ],
          "internalType": "struct Voting.Voter_Data",
          "name": "",
          "type": "tuple"
        }
      ],
      "stateMutability": "view",
      "type": "function"
    },
    {
      "inputs": [],
      "name": "Get_Candidates",
      "outputs": [
        {
          "components": [
            {
              "internalType": "string",
              "name": "Name",
              "type": "string"
            },
            {
              "internalType": "string",
              "name": "Party_Name",
              "type": "string"
            },
            {
              "internalType": "uint256",
              "name": "Age",
              "type": "uint256"
            },
            {
              "internalType": "string",
              "name": "Gender",
              "type": "string"
            },
            {
              "internalType": "uint256",
              "name": "Id",
              "type": "uint256"
            }
          ],
          "internalType": "struct Voting.Candidate_List_info[]",
          "name": "",
          "type": "tuple[]"
        }
      ],
      "stateMutability": "view",
      "type": "function"
    },
    {
      "inputs": [
        {
          "internalType": "uint256",
          "name": "_Adhar_No",
          "type": "uint256"
        }
      ],
      "name": "Get_Email",
      "outputs": [
        {
          "internalType": "string",
          "name": "",
          "type": "string"
        }
      ],
      "stateMutability": "view",
      "type": "function"
    },
    {
      "inputs": [],
      "name": "Get_Result",
      "outputs": [
        {
          "components": [
            {
              "internalType": "string",
              "name": "Candidate_Name",
              "type": "string"
            },
            {
              "internalType": "string",
              "name": "Candidate_Party_Name",
              "type": "string"
            },
            {
              "internalType": "uint256",
              "name": "Candidate_Vote_Count",
              "type": "uint256"
            },
            {
              "internalType": "uint256",
              "name": "Id",
              "type": "uint256"
            }
          ],
          "internalType": "struct Voting.Candidate_Voting_info[]",
          "name": "",
          "type": "tuple[]"
        }
      ],
      "stateMutability": "view",
      "type": "function"
    },
    {
      "inputs": [
        {
          "internalType": "uint256",
          "name": "_st_time",
          "type": "uint256"
        },
        {
          "internalType": "uint256",
          "name": "_End_time",
          "type": "uint256"
        }
      ],
      "name": "Set_Voting_time",
      "outputs": [],
      "stateMutability": "nonpayable",
      "type": "function"
    },
    {
      "inputs": [],
      "name": "Update_Result",
      "outputs": [],
      "stateMutability": "nonpayable",
      "type": "function"
    }
  ],
  "bytecode": "0x60806040526000601560006101000a81548160ff02191690831515021790555034801561002b57600080fd5b5060016003600073ad204354aa54b84105b3f17e2f761bb8092abbe573ffffffffffffffffffffffffffffffffffffffff1673ffffffffffffffffffffffffffffffffffffffff16815260200190815260200160002060006101000a81548160ff02191690831515021790555060016003600073ad204354aa54b84105b3f17e2f761bb8092abbe573ffffffffffffffffffffffffffffffffffffffff1673ffffffffffffffffffffffffffffffffffffffff16815260200190815260200160002060006101000a81548160ff0219169083151502179055506001600460007382734d85a2db6cfb42247ccd523c9a7f15d2fdac73ffffffffffffffffffffffffffffffffffffffff1673ffffffffffffffffffffffffffffffffffffffff16815260200190815260200160002060006101000a81548160ff0219169083151502179055506001600460007384b0e37f832d6b465474cfe41dab6932584dcb9c73ffffffffffffffffffffffffffffffffffffffff1673ffffffffffffffffffffffffffffffffffffffff16815260200190815260200160002060006101000a81548160ff021916908315150217905550612def806101eb6000396000f3fe608060405234801561001057600080fd5b50600436106100935760003560e01c806395b172ef1161006657806395b172ef1461011e578063d3c202ac1461013c578063d965b1911461015a578063f5c177b114610176578063fe18dbd21461018057610093565b806303326fa0146100985780636627d32f146100b45780637641aeaf146100d0578063822f1b1314610100575b600080fd5b6100b260048036038101906100ad9190611999565b61019c565b005b6100ce60048036038101906100c99190611a4c565b6105bd565b005b6100ea60048036038101906100e59190611a8c565b61098d565b6040516100f79190611b38565b60405180910390f35b610108610a3a565b6040516101159190611cf9565b60405180910390f35b610126610c63565b6040516101339190611dd2565b60405180910390f35b610144610ce7565b6040516101519190611f1a565b60405180910390f35b610174600480360381019061016f9190611a4c565b610f22565b005b61017e611019565b005b61019a60048036038101906101959190611f3c565b6112e7565b005b600042905060086001015481106101e8576040517f08c379a00000000000000000000000000000000000000000000000000000000081526004016101df9061203b565b60405180910390fd5b60006101f33361167b565b905060018114610238576040517f08c379a000000000000000000000000000000000000000000000000000000000815260040161022f906120cd565b60405180910390fd5b601985101561027c576040517f08c379a00000000000000000000000000000000000000000000000000000000081526004016102739061215f565b60405180910390fd5b600015156001600085815260200190815260200160002060009054906101000a900460ff161515146102e3576040517f08c379a00000000000000000000000000000000000000000000000000000000081526004016102da906121cb565b60405180910390fd5b600115156001600085815260200190815260200160002060009054906101000a9050505060016012600082825461031a919061221a565b9250508190555060006040518060200160405280600081525090506001870361039057600160146000828254610350919061221a565b925050819055506040518060400160405280600481526020017f4d616c650000000000000000000000000000000000000000000000000000000081525090505b600287036103eb576001601360008282546103ab919061221a565b925050819055506040518060400160405280600681526020017f46656d616c65000000000000000000000000000000000000000000000000000081525090505b6103f3611745565b8881600001819052508581602001819052508681604001818152505081816060018190525060125481608001818152505060058190806001815401808255809150506001900390600052602060002090600502016000909190919091506000820151816000019081610465919061245a565b50602082015181600101908161047b919061245a565b5060408201518160020155606082015181600301908161049b919061245a565b506080820151816004015550508860026000601254815260200190815260200160002060000190816104cd919061245a565b508660026000601254815260200190815260200160002060010181905550816002600060125481526020019081526020016000206002019081610510919061245a565b50856002600060125481526020019081526020016000206003019081610536919061245a565b506000600260006012548152602001908152602001600020600401819055506000600260006012548152602001908152602001600020600401819055507f399cf58b22c9248c31fc755992fdd08324d5839dd85a4658e20daf61483e9c5289888489896040516105aa95949392919061253b565b60405180910390a1505050505050505050565b60004290506000600860010154905060006008600201549050808210610618576040517f08c379a000000000000000000000000000000000000000000000000000000000815260040161060f906125ef565b60405180910390fd5b81831161065a576040517f08c379a000000000000000000000000000000000000000000000000000000000815260040161065190612681565b60405180910390fd5b80831061069c576040517f08c379a000000000000000000000000000000000000000000000000000000000815260040161069390612713565b60405180910390fd5b60006106a73361167b565b9050600281146106ec576040517f08c379a00000000000000000000000000000000000000000000000000000000081526004016106e3906127a5565b60405180910390fd5b6000851180156106fe57506012548511155b61073d576040517f08c379a000000000000000000000000000000000000000000000000000000000815260040161073490612811565b60405180910390fd5b6001151560008088815260200190815260200160002060000160019054906101000a900460ff161515146107a6576040517f08c379a000000000000000000000000000000000000000000000000000000000815260040161079d9061287d565b60405180910390fd5b6000151560008088815260200190815260200160002060000160009054906101000a900460ff1615151461080f576040517f08c379a0000000000000000000000000000000000000000000000000000000008152600401610806906128e9565b60405180910390fd5b600160008088815260200190815260200160002060000160006101000a81548160ff021916908315150217905550600f600081548092919061085090612909565b9190505550600160026000878152602001908152602001600020600401600082825461087c919061221a565b92505081905550604051602001610892906129a8565b604051602081830303815290604052805190602001206002600060125481526020019081526020016000206002016040516020016108d09190612a40565b604051602081830303815290604052805190602001200361090457601160008154809291906108fe90612909565b91905055505b60405160200161091390612aa3565b604051602081830303815290604052805190602001206002600060125481526020019081526020016000206002016040516020016109519190612a40565b6040516020818303038152906040528051906020012003610985576010600081548092919061097f90612909565b91905055505b505050505050565b6060600080600084815260200190815260200160002060020180546109b19061227d565b80601f01602080910402602001604051908101604052809291908181526020018280546109dd9061227d565b8015610a2a5780601f106109ff57610100808354040283529160200191610a2a565b820191906000526020600020905b815481529060010190602001808311610a0d57829003601f168201915b5050505050905080915050919050565b60606005805480602002602001604051908101604052809291908181526020016000905b82821015610c5a57838290600052602060002090600502016040518060a0016040529081600082018054610a919061227d565b80601f0160208091040260200160405190810160405280929190818152602001828054610abd9061227d565b8015610b0a5780601f10610adf57610100808354040283529160200191610b0a565b820191906000526020600020905b815481529060010190602001808311610aed57829003601f168201915b50505050508152602001600182018054610b239061227d565b80601f0160208091040260200160405190810160405280929190818152602001828054610b4f9061227d565b8015610b9c5780601f10610b7157610100808354040283529160200191610b9c565b820191906000526020600020905b815481529060010190602001808311610b7f57829003601f168201915b5050505050815260200160028201548152602001600382018054610bbf9061227d565b80601f0160208091040260200160405190810160405280929190818152602001828054610beb9061227d565b8015610c385780601f10610c0d57610100808354040283529160200191610c38565b820191906000526020600020905b815481529060010190602001808311610c1b57829003601f168201915b5050505050815260200160048201548152505081526020019060010190610a5e565b50505050905090565b610c6b611774565b610c73611774565b600c54816000018181525050600d54816020018181525050600e54816040018181525050600f548160600181815250506010548160800181815250506011548160a00181815250506012548160c00181815250506013548160e0018181525050601454816101000181815250508091505090565b6060600042905060006008600201549050808211610d3a576040517f08c379a0000000000000000000000000000000000000000000000000000000008152600401610d3190612b04565b60405180910390fd5b6000610d453361167b565b905060018114610d8a576040517f08c379a0000000000000000000000000000000000000000000000000000000008152600401610d81906120cd565b60405180910390fd5b6007805480602002602001604051908101604052809291908181526020016000905b82821015610f165783829060005260206000209060040201604051806080016040529081600082018054610ddf9061227d565b80601f0160208091040260200160405190810160405280929190818152602001828054610e0b9061227d565b8015610e585780601f10610e2d57610100808354040283529160200191610e58565b820191906000526020600020905b815481529060010190602001808311610e3b57829003601f168201915b50505050508152602001600182018054610e719061227d565b80601f0160208091040260200160405190810160405280929190818152602001828054610e9d9061227d565b8015610eea5780601f10610ebf57610100808354040283529160200191610eea565b820191906000526020600020905b815481529060010190602001808311610ecd57829003601f168201915b505050505081526020016002820154815260200160038201548152505081526020019060010190610dac565b50505050935050505090565b6000610f2d3361167b565b905060018114610f72576040517f08c379a0000000000000000000000000000000000000000000000000000000008152600401610f69906120cd565b60405180910390fd5b818310610fb4576040517f08c379a0000000000000000000000000000000000000000000000000000000008152600401610fab90612b96565b60405180910390fd5b826008600101819055508160086002018190555060086002015460086001015410611014576040517f08c379a000000000000000000000000000000000000000000000000000000000815260040161100b90612c02565b60405180910390fd5b505050565b60004290506008600201548111611065576040517f08c379a000000000000000000000000000000000000000000000000000000000815260040161105c90612b04565b60405180910390fd5b60006110703361167b565b9050600181146110b5576040517f08c379a00000000000000000000000000000000000000000000000000000000081526004016110ac906120cd565b60405180910390fd5b6000600190505b60125481116112c7576110cd6117c0565b818160600181815250506002600083815260200190815260200160002060000180546110f89061227d565b80601f01602080910402602001604051908101604052809291908181526020018280546111249061227d565b80156111715780601f1061114657610100808354040283529160200191611171565b820191906000526020600020905b81548152906001019060200180831161115457829003601f168201915b5050505050816000018190525060026000838152602001908152602001600020600301805461119f9061227d565b80601f01602080910402602001604051908101604052809291908181526020018280546111cb9061227d565b80156112185780601f106111ed57610100808354040283529160200191611218565b820191906000526020600020905b8154815290600101906020018083116111fb57829003601f168201915b50505050508160200181905250600260008381526020019081526020016000206004015481604001818152505060078190806001815401808255809150506001900390600052602060002090600402016000909190919091506000820151816000019081611286919061245a565b50602082015181600101908161129c919061245a565b50604082015181600201556060820151816003015550505080806112bf90612909565b9150506110bc565b506001601560006101000a81548160ff0219169083151502179055505050565b60004290506008600101548110611333576040517f08c379a000000000000000000000000000000000000000000000000000000000815260040161132a90612c6e565b60405180910390fd5b600061133e3361167b565b905060018114611383576040517f08c379a000000000000000000000000000000000000000000000000000000000815260040161137a906120cd565b60405180910390fd5b60128610156113c7576040517f08c379a00000000000000000000000000000000000000000000000000000000081526004016113be90612cda565b60405180910390fd5b6000151560008086815260200190815260200160002060000160019054906101000a900460ff16151514611430576040517f08c379a000000000000000000000000000000000000000000000000000000000815260040161142790612d46565b60405180910390fd5b6001600c6000828254611443919061221a565b925050819055506000604051806020016040528060008152509050600186036114b9576001600d6000828254611479919061221a565b925050819055506040518060400160405280600481526020017f4d616c650000000000000000000000000000000000000000000000000000000081525090505b60028603611514576001600e60008282546114d4919061221a565b925050819055506040518060400160405280600681526020017f46656d616c65000000000000000000000000000000000000000000000000000081525090505b61151c6117e8565b88816000018190525087816020018181525050858160400181815250506006819080600181540180825580915050600190039060005260206000209060030201600090919091909150600082015181600001908161157a919061245a565b5060208201518160010155604082015181600201555050600160008088815260200190815260200160002060000160016101000a81548160ff021916908315150217905550600080600088815260200190815260200160002060000160006101000a81548160ff02191690831515021790555081600080888152602001908152602001600020600101908161160f919061245a565b50846000808881526020019081526020016000206002019081611632919061245a565b507fef3f856c740b20fdaf02169b19aca3ad3b0b478b19807477d510aeff3ac026a1898984896040516116689493929190612d66565b60405180910390a1505050505050505050565b6000806000905060011515600360008573ffffffffffffffffffffffffffffffffffffffff1673ffffffffffffffffffffffffffffffffffffffff16815260200190815260200160002060009054906101000a900460ff161515036116df57600190505b60011515600460008573ffffffffffffffffffffffffffffffffffffffff1673ffffffffffffffffffffffffffffffffffffffff16815260200190815260200160002060009054906101000a900460ff1615150361173c57600290505b80915050919050565b6040518060a0016040528060608152602001606081526020016000815260200160608152602001600081525090565b6040518061012001604052806000815260200160008152602001600081526020016000815260200160008152602001600081526020016000815260200160008152602001600081525090565b6040518060800160405280606081526020016060815260200160008152602001600081525090565b60405180606001604052806060815260200160008152602001600081525090565b6000604051905090565b600080fd5b600080fd5b600080fd5b600080fd5b6000601f19601f8301169050919050565b7f4e487b7100000000000000000000000000000000000000000000000000000000600052604160045260246000fd5b61187082611827565b810181811067ffffffffffffffff8211171561188f5761188e611838565b5b80604052505050565b60006118a2611809565b90506118ae8282611867565b919050565b600067ffffffffffffffff8211156118ce576118cd611838565b5b6118d782611827565b9050602081019050919050565b82818337600083830152505050565b6000611906611901846118b3565b611898565b90508281526020810184848401111561192257611921611822565b5b61192d8482856118e4565b509392505050565b600082601f83011261194a5761194961181d565b5b813561195a8482602086016118f3565b91505092915050565b6000819050919050565b61197681611963565b811461198157600080fd5b50565b6000813590506119938161196d565b92915050565b600080600080600060a086880312156119b5576119b4611813565b5b600086013567ffffffffffffffff8111156119d3576119d2611818565b5b6119df88828901611935565b95505060206119f088828901611984565b9450506040611a0188828901611984565b935050606086013567ffffffffffffffff811115611a2257611a21611818565b5b611a2e88828901611935565b9250506080611a3f88828901611984565b9150509295509295909350565b60008060408385031215611a6357611a62611813565b5b6000611a7185828601611984565b9250506020611a8285828601611984565b9150509250929050565b600060208284031215611aa257611aa1611813565b5b6000611ab084828501611984565b91505092915050565b600081519050919050565b600082825260208201905092915050565b60005b83811015611af3578082015181840152602081019050611ad8565b60008484015250505050565b6000611b0a82611ab9565b611b148185611ac4565b9350611b24818560208601611ad5565b611b2d81611827565b840191505092915050565b60006020820190508181036000830152611b528184611aff565b905092915050565b600081519050919050565b600082825260208201905092915050565b6000819050602082019050919050565b600082825260208201905092915050565b6000611ba282611ab9565b611bac8185611b86565b9350611bbc818560208601611ad5565b611bc581611827565b840191505092915050565b611bd981611963565b82525050565b600060a0830160008301518482036000860152611bfc8282611b97565b91505060208301518482036020860152611c168282611b97565b9150506040830151611c2b6040860182611bd0565b5060608301518482036060860152611c438282611b97565b9150506080830151611c586080860182611bd0565b508091505092915050565b6000611c6f8383611bdf565b905092915050565b6000602082019050919050565b6000611c8f82611b5a565b611c998185611b65565b935083602082028501611cab85611b76565b8060005b85811015611ce75784840389528151611cc88582611c63565b9450611cd383611c77565b925060208a01995050600181019050611caf565b50829750879550505050505092915050565b60006020820190508181036000830152611d138184611c84565b905092915050565b61012082016000820151611d326000850182611bd0565b506020820151611d456020850182611bd0565b506040820151611d586040850182611bd0565b506060820151611d6b6060850182611bd0565b506080820151611d7e6080850182611bd0565b5060a0820151611d9160a0850182611bd0565b5060c0820151611da460c0850182611bd0565b5060e0820151611db760e0850182611bd0565b50610100820151611dcc610100850182611bd0565b50505050565b600061012082019050611de86000830184611d1b565b92915050565b600081519050919050565b600082825260208201905092915050565b6000819050602082019050919050565b60006080830160008301518482036000860152611e378282611b97565b91505060208301518482036020860152611e518282611b97565b9150506040830151611e666040860182611bd0565b506060830151611e796060860182611bd0565b508091505092915050565b6000611e908383611e1a565b905092915050565b6000602082019050919050565b6000611eb082611dee565b611eba8185611df9565b935083602082028501611ecc85611e0a565b8060005b85811015611f085784840389528151611ee98582611e84565b9450611ef483611e98565b925060208a01995050600181019050611ed0565b50829750879550505050505092915050565b60006020820190508181036000830152611f348184611ea5565b905092915050565b600080600080600060a08688031215611f5857611f57611813565b5b600086013567ffffffffffffffff811115611f7657611f75611818565b5b611f8288828901611935565b9550506020611f9388828901611984565b9450506040611fa488828901611984565b9350506060611fb588828901611984565b925050608086013567ffffffffffffffff811115611fd657611fd5611818565b5b611fe288828901611935565b9150509295509295909350565b7f416464696e672043616e6469646174652054696d65206973204f766572000000600082015250565b6000612025601d83611ac4565b915061203082611fef565b602082019050919050565b6000602082019050818103600083015261205481612018565b9050919050565b7f4f6e6c792041646d696e2050616e656c2063616e20416363657320416464205660008201527f6f7465722046756e6374696f6e00000000000000000000000000000000000000602082015250565b60006120b7602d83611ac4565b91506120c28261205b565b604082019050919050565b600060208201905081810360008301526120e6816120aa565b9050919050565b7f43616e6469646174652041676520697320496e56616c696420466f7220456c6560008201527f6374696f6e000000000000000000000000000000000000000000000000000000602082015250565b6000612149602583611ac4565b9150612154826120ed565b604082019050919050565b600060208201905081810360008301526121788161213c565b9050919050565b7f43616e64696461746520697320416c7265616479205265676973746572656400600082015250565b60006121b5601f83611ac4565b91506121c08261217f565b602082019050919050565b600060208201905081810360008301526121e4816121a8565b9050919050565b7f4e487b7100000000000000000000000000000000000000000000000000000000600052601160045260246000fd5b600061222582611963565b915061223083611963565b9250828201905080821115612248576122476121eb565b5b92915050565b7f4e487b7100000000000000000000000000000000000000000000000000000000600052602260045260246000fd5b6000600282049050600182168061229557607f821691505b6020821081036122a8576122a761224e565b5b50919050565b60008190508160005260206000209050919050565b60006020601f8301049050919050565b600082821b905092915050565b6000600883026123107fffffffffffffffffffffffffffffffffffffffffffffffffffffffffffffffff826122d3565b61231a86836122d3565b95508019841693508086168417925050509392505050565b6000819050919050565b600061235761235261234d84611963565b612332565b611963565b9050919050565b6000819050919050565b6123718361233c565b61238561237d8261235e565b8484546122e0565b825550505050565b600090565b61239a61238d565b6123a5818484612368565b505050565b5b818110156123c9576123be600082612392565b6001810190506123ab565b5050565b601f82111561240e576123df816122ae565b6123e8846122c3565b810160208510156123f7578190505b61240b612403856122c3565b8301826123aa565b50505b505050565b600082821c905092915050565b600061243160001984600802612413565b1980831691505092915050565b600061244a8383612420565b9150826002028217905092915050565b61246382611ab9565b67ffffffffffffffff81111561247c5761247b611838565b5b612486825461227d565b6124918282856123cd565b600060209050601f8311600181146124c457600084156124b2578287015190505b6124bc858261243e565b865550612524565b601f1984166124d2866122ae565b60005b828110156124fa578489015182556001820191506020850194506020810190506124d5565b868310156125175784890151612513601f891682612420565b8355505b6001600288020188555050505b505050505050565b61253581611963565b82525050565b600060a08201905081810360008301526125558188611aff565b9050612564602083018761252c565b81810360408301526125768186611aff565b9050818103606083015261258a8185611aff565b9050612599608083018461252c565b9695505050505050565b7f496e76616c696420566f74696e672074696d6520536574000000000000000000600082015250565b60006125d9601783611ac4565b91506125e4826125a3565b602082019050919050565b60006020820190508181036000830152612608816125cc565b9050919050565b7f566f74696e672020686173206e6f742053746172746564205965742c2043617360008201527f7420566f7465205768656e20566f74696e672053746172746564000000000000602082015250565b600061266b603a83611ac4565b91506126768261260f565b604082019050919050565b6000602082019050818103600083015261269a8161265e565b9050919050565b7f566f74696e672048617320456e6465642c20596f752043616e6e6f7420566f7460008201527f65204e6f77000000000000000000000000000000000000000000000000000000602082015250565b60006126fd602583611ac4565b9150612708826126a1565b604082019050919050565b6000602082019050818103600083015261272c816126f0565b9050919050565b7f4f6e6c7920566f74696e672050616e656c2043616e20416363657320566f746960008201527f6e67204675636e74696f6e000000000000000000000000000000000000000000602082015250565b600061278f602b83611ac4565b915061279a82612733565b604082019050919050565b600060208201905081810360008301526127be81612782565b9050919050565b7f496e76616c69642043616e646964617465000000000000000000000000000000600082015250565b60006127fb601183611ac4565b9150612806826127c5565b602082019050919050565b6000602082019050818103600083015261282a816127ee565b9050919050565b7f566f746572206973204e6f742052656769737465726564000000000000000000600082015250565b6000612867601783611ac4565b915061287282612831565b602082019050919050565b600060208201905081810360008301526128968161285a565b9050919050565b7f566f74657220697320416c726561647920566f74656400000000000000000000600082015250565b60006128d3601683611ac4565b91506128de8261289d565b602082019050919050565b60006020820190508181036000830152612902816128c6565b9050919050565b600061291482611963565b91507fffffffffffffffffffffffffffffffffffffffffffffffffffffffffffffffff8203612946576129456121eb565b5b600182019050919050565b600081905092915050565b7f46656d616c650000000000000000000000000000000000000000000000000000600082015250565b6000612992600683612951565b915061299d8261295c565b600682019050919050565b60006129b382612985565b9150819050919050565b600081546129ca8161227d565b6129d48186612951565b945060018216600081146129ef5760018114612a0457612a37565b60ff1983168652811515820286019350612a37565b612a0d856122ae565b60005b83811015612a2f57815481890152600182019150602081019050612a10565b838801955050505b50505092915050565b6000612a4c82846129bd565b915081905092915050565b7f4d616c6500000000000000000000000000000000000000000000000000000000600082015250565b6000612a8d600483612951565b9150612a9882612a57565b600482019050919050565b6000612aae82612a80565b9150819050919050565b7f566f74696e6720796574204e6f742066696e6973680000000000000000000000600082015250565b6000612aee601583611ac4565b9150612af982612ab8565b602082019050919050565b60006020820190508181036000830152612b1d81612ae1565b9050919050565b7f456e642054696d652043616e6e6f74204265204c657373205468616e2053746160008201527f72742054696d6500000000000000000000000000000000000000000000000000602082015250565b6000612b80602783611ac4565b9150612b8b82612b24565b604082019050919050565b60006020820190508181036000830152612baf81612b73565b9050919050565b7f496e76616c69642054696d652053657400000000000000000000000000000000600082015250565b6000612bec601083611ac4565b9150612bf782612bb6565b602082019050919050565b60006020820190508181036000830152612c1b81612bdf565b9050919050565b7f416464696e6720566f7465722054696d65206973204f76657200000000000000600082015250565b6000612c58601983611ac4565b9150612c6382612c22565b602082019050919050565b60006020820190508181036000830152612c8781612c4b565b9050919050565b7f566f7465722041676520697320696e76616c696420466f7220566f74696e6700600082015250565b6000612cc4601f83611ac4565b9150612ccf82612c8e565b602082019050919050565b60006020820190508181036000830152612cf381612cb7565b9050919050565b7f566f74657220697320416c726561647920526567697374657265640000000000600082015250565b6000612d30601b83611ac4565b9150612d3b82612cfa565b602082019050919050565b60006020820190508181036000830152612d5f81612d23565b9050919050565b60006080820190508181036000830152612d808187611aff565b9050612d8f602083018661252c565b8181036040830152612da18185611aff565b9050612db0606083018461252c565b9594505050505056fea264697066735822122039bd8c19a6d2039d1de5d76439f1553aaa6ee7e5f8f402f5c98415fa7852fdcd64736f6c63430008110033",
  "linkReferences": {},
  "deployedLinkReferences": {}
}